:020000040800F2
:1000000000040020450100088B030008830300085A
:10001000870300088D0100080109000800000000A6
:1000200000000000000000000000000011040008B3
:1000300091010008000000008D030008FD04000885
:100040005F0100085F0100085F0100085F01000810
:100050005F0100085F0100085F0100085F01000800
:100060005F0100085F0100085F0100085F010008F0
:100070005F0100085F0100085F0100085F010008E0
:100080005F0100085F0100085F0100085F010008D0
:100090005F0100085F0100085F0100085F010008C0
:1000A0005F0100085F0100085F0100085F010008B0
:1000B0005F0100085F0100085F0100085F010008A0
:1000C0005F0100085F0100085F0100085F01000890
:1000D0005F0100085F0100085F0100085F01000880
:1000E0005F0100085F0100085F0100085F01000870
:1000F0005F0100085F0100085F0100085F01000860
:100100005F0100085F0100085F0100085F0100084F
:100110005F0100085F0100085F0100085F0100083F
:100120005F0100085F0100085F0100085F0100082F
:10013000DFF80CD000F018F8004800472509000847
:10014000000400200648804706480047FEE7FEE717
:10015000FEE7FEE7FEE7FEE7FEE7FEE7FEE7FEE777
:100160000105000831010008064C074D06E0E06873
:1001700040F0010394E8070098471034AC42F6D3EE
:10018000FFF7DAFF740900088409000800BFFEE7E2
:10019000704701B507E042F6E06100BF081EA1F11B
:1001A000010291B2FAD10098421E00920028F2D1C9
:1001B00008BD000008B50121082000F009F9012060
:1001C000ADF8000018208DF8030003208DF8020020
:1001D0006946024800F04AF808BD0000000C0140E2
:1001E00010B5FFF7E7FF00F001F810BD00B587B0CC
:1001F0000121022000F0CCF81B4800F0D9F91A4880
:1002000000F0CAFA4FF4FA60ADF814004820ADF8D7
:1002100010000020ADF81600ADF8120004A9124835
:1002200000F01CFB6020ADF800000120ADF80200DA
:100230000020ADF808004820ADF8060069460A48DD
:1002400000F0B0FA0821084800F0FCFA0121064845
:1002500000F09EF90121044800F082F901210248D2
:1002600000F08AF907B000BD000400402DE9F0411C
:10027000024600250026002000230024002791F8D4
:1002800003C00CF00F0591F803C00CF0100CBCF18A
:10029000000F03D091F802C04CEA050591F800C0A8
:1002A000BCF1000F31D0146800202BE04FF0010C9E
:1002B0000CFA00F3B1F800C00CEA03069E4220D10C
:1002C00083004FF00F0C0CFA03F7BC4305FA03FC54
:1002D0004CEA040491F803C0BCF1280F06D14FF09A
:1002E000010C0CFA00FCC2F814C00AE091F803C03B
:1002F000BCF1480F05D14FF0010C0CFA00FCC2F81C
:1003000010C0401C0828D1D31460B1F800C0BCF163
:10031000FF0F34DD546800202EE000F1080C4FF090
:10032000010808FA0CF3B1F800C00CEA03069E427B
:1003300021D183004FF00F0C0CFA03F7BC4305FAF0
:1003400003FC4CEA040491F803C0BCF1280F05D16A
:1003500000F1080C08FA0CF8C2F8148091F803C0F8
:10036000BCF1480F07D100F1080C4FF0010808FA62
:100370000CF8C2F81080401C0828CED35460BDE8A9
:10038000F08100BFFEE700BFFEE770477047000046
:1003900029B1064AD2690243044BDA6104E0034AF8
:1003A000D2698243014BDA617047000000100240BD
:1003B00029B1064A12690243044B1A6104E0034A58
:1003C00012698243014B1A6170470000001002401D
:1003D00029B1064A92690243044B9A6104E0034A38
:1003E00092698243014B9A617047000000100240FD
:1003F00029B1064AD2680243044BDA6004E0034A9A
:10040000D2688243014BDA6070470000001002405E
:10041000704710B500F002F810BD00000CB50020C8
:10042000019000903348006840F480303149086002
:1004300000BF3048006800F4003000900198401C74
:100440000190009818B90198B0F5A06FF1D1294832
:10045000006800F4003010B10120009001E000209D
:1004600000900098012843D12348006840F0100014
:10047000214908600846006820F00300086008462B
:10048000006840F0020008601A4840681949486056
:100490000846406848600846406840F4806048600C
:1004A0000846406820F47C1048600846406840F4E4
:1004B000E81048600846006840F08070086000BF9F
:1004C0000C48006800F000700028F9D00948406826
:1004D00020F00300074948600846406840F00200E9
:1004E000486000BF0348406800F00C000828F9D1BC
:1004F0000CBD0000001002400020024070470000C8
:1005000010B51348006840F0010011490860084622
:100510004068104908400E494860084600680E4986
:1005200008400B4908600846006820F480200860F5
:100530000846406820F4FE0048604FF41F008860C1
:10054000FFF767FF4FF000600449086010BD00002E
:10055000001002400000FFF8FFFFF6FE08ED00E08B
:1005600021B1028842F08002028004E002884FF646
:100570007F731A400280704721B1028842F0010265
:10058000028004E002884FF6FE731A400280704732
:1005900031B1B0F8442042F40042A0F8442005E014
:1005A000B0F84420C2F30E02A0F8442070470000C7
:1005B00010B504466848844208D10121C014FFF7F1
:1005C00017FF0021E014FFF713FFC4E0B4F1804FE0
:1005D00008D101210846FFF7EBFE00210120FFF7BB
:1005E000E7FEB8E05D48844208D101210220FFF710
:1005F000DFFE00210220FFF7DBFEACE0584884421A
:1006000008D101210420FFF7D3FE00210420FFF7C9
:10061000CFFEA0E05348844208D101210820FFF713
:10062000C7FE00210820FFF7C3FE94E04E48844235
:1006300008D101211020FFF7BBFE00211020FFF799
:10064000B7FE88E04948844208D101212020FFF705
:10065000AFFE00212020FFF7ABFE7CE0444884423F
:1006600008D101214014FFF7C3FE00216014FFF7F9
:10067000BFFE70E03F48844209D10121C804FFF762
:10068000B7FE00214FF40020FFF7B2FE63E03A48C6
:10069000844209D101210805FFF7AAFE00214FF489
:1006A0008010FFF7A5FE56E03448844209D10121AD
:1006B0004805FFF79DFE00214FF40010FFF798FE5C
:1006C00049E02F48844208D101214020FFF770FE05
:1006D00000214020FFF76CFE3DE02A48844208D10B
:1006E00001218020FFF764FE00218020FFF760FEDB
:1006F00031E02548844208D101218015FFF758FEDA
:100700000021A015FFF754FE25E02048844209D1BE
:1007100001210804FFF76CFE00214FF48030FFF741
:1007200067FE18E01A48844209D101214804FFF706
:100730005FFE00214FF40030FFF75AFE0BE0154832
:10074000844208D101218804FFF752FE00214FF4B2
:100750008020FFF74DFE10BD002C0140000400403A
:1007600000080040000C0040001000400014004051
:1007700000340140004C0140005001400054014051
:1007800000180040001C00400020004000400140D4
:10079000004401400048014001894FF6F8721140C1
:1007A0000181704770B5002400220023058C4FF6AC
:1007B000FF6635400584028C8388848B4FF68F75E5
:1007C0002C404FF6FC752C400D882C434FF6FF55FE
:1007D0002A400D894FF6FF7606EA05252A434D8803
:1007E00006EA05252A43154DA84202D0144DA84219
:1007F0001DD14FF2FF752A404D894FF6FF7606EA6C
:1008000005252A434FF6FF352A408D8806EA05253F
:100810002A434EF6FF752B404DF6FF752B408D8910
:1008200006EA05152B43CD8906EA05152B4383807F
:100830008483CD888587028470BD0000002C014030
:10084000003401400A460021818B4FF6F7731940AE
:10085000114381837047818770470000002202881E
:100860001D4B98420ED01D4B98420BD0B0F1804FDB
:1008700008D01B4B984205D01A4B984202D01A4B15
:10088000984204D14FF68F731A404B881A43174B86
:10089000984207D0164B984204D04FF6FF431A40B7
:1008A000CB881A4302808B8883850B8803850A4B8B
:1008B00098420BD0094B984208D00E4B984205D075
:1008C0000D4B984202D00D4B984201D10B7A038612
:1008D0000123838270470000002C01400034014056
:1008E0000004004000080040000C004000100040E0
:1008F0000014004000400140004401400048014015
:1009000000BFFEE702E008C8121F08C1002AFAD1A2
:1009100070477047002001E001C1121F002AFBD17F
:10092000704700004FF4FA64FFF75AFC1EE040F2F3
:10093000D17409E0A1B20E48FFF78DFF6420FFF7E4
:1009400028FCA4F1C80004B2002CF3DC012409E067
:10095000A1B20748FFF77FFF6420FFF71AFC04F1FC
:10096000C80004B240F2D1708442F1DDDFE700003C
:10097000000400408409000800000020000400007A
:04098000140900084E
:0400000508000131BD
:00000001FF
