:020000040800F2
:1000000008040020450100086103000811030008EE
:100010005D030008ED010008A106000800000000D3
:100020000000000000000000000000002D04000897
:10003000F101000800000000E903000819050008AC
:100040005F0100085F0100085F0100085F01000810
:100050005F0100085F0100085F0100085F01000800
:100060005F0100085F0100085F0100085F010008F0
:100070005F0100085F0100085F0100085F010008E0
:100080005F0100085F0100085F0100085F010008D0
:100090005F0100085F0100085F0100085F010008C0
:1000A0005F0100085F0100085F0100085F010008B0
:1000B0005F0100085F0100085F0100085F010008A0
:1000C0005F0100085F0100085F0100085F01000890
:1000D0005F0100085F0100085F0100085F01000880
:1000E0005F0100085F0100085F0100085F01000870
:1000F0005F0100085F0100085F0100085F01000860
:100100005F0100085F0100085F0100085F0100084F
:100110005F0100085F0100087D0500085F0100081D
:100120005F0100085F0100085F0100085F0100082F
:10013000DFF80CD000F018F800480047C5060008AA
:10014000080400200648804706480047FEE7FEE70F
:10015000FEE7FEE7FEE7FEE7FEE7FEE7FEE7FEE777
:100160001D05000831010008064C074D06E0E06857
:1001700040F0010394E8070098471034AC42F6D3EE
:10018000FFF7DAFF18070008380700081FB501213C
:10019000102000F02BF940F2E730ADF808004720BE
:1001A000ADF8040001A9104800F028FA36208DF8B7
:1001B000000000208DF8010003208DF802000120CE
:1001C0008DF80300684600F0CDF80121064800F0E4
:1001D000E9F901221146044800F007FA012102481A
:1001E00000F0E6F91FBD00000010004000BFFEE770
:1001F00070472DE9F041024600250026002000232B
:100200000024002791F803C00CF00F0591F803C0FB
:100210000CF0100CBCF1000F03D091F802C04CEAB6
:10022000050591F800C0BCF1000F31D01468002022
:100230002BE04FF0010C0CFA00F3B1F800C00CEA0F
:1002400003069E4220D183004FF00F0C0CFA03F7F7
:10025000BC4305FA03FC4CEA040491F803C0BCF16A
:10026000280F06D14FF0010C0CFA00FCC2F814C0A4
:100270000AE091F803C0BCF1480F05D14FF0010C22
:100280000CFA00FCC2F810C0401C0828D1D314603E
:10029000B1F800C0BCF1FF0F34DD546800202EE03F
:1002A00000F1080C4FF0010808FA0CF3B1F800C097
:1002B0000CEA03069E4221D183004FF00F0C0CFA8A
:1002C00003F7BC4305FA03FC4CEA040491F803C0AD
:1002D000BCF1280F05D100F1080C08FA0CF8C2F89F
:1002E000148091F803C0BCF1480F07D100F1080C4D
:1002F0004FF0010808FA0CF8C2F81080401C0828DA
:10030000CED35460BDE8F081416170470161704710
:1003100000BFFEE708B50121042000F077F81020A7
:100320008DF80300ADF8000001208DF80200694649
:100330000148FFF75EFF08BD0008014010B510211D
:100340000148FFF7E3FF10BD0008014010B5102180
:100350000148FFF7D9FF10BD0008014000BFFEE7CC
:100360007047000070B5002100230F22C47804B349
:10037000154C246804F4E064C4F5E064210AC1F17A
:100380000403CA40447804FA03F1847814402143FA
:1003900009010E4C0678A155047804F01F050124CC
:1003A000AC4005786D11AD0005F1E025C5F80041C0
:1003B00009E0047804F01F050124AC40044D0678E0
:1003C000761145F8264070BD0CED00E000E400E039
:1003D00080E100E002490143024A116070470000D9
:1003E0000000FA050CED00E07047000029B1064A54
:1003F000D2690243044BDA6104E0034AD2698243C2
:10040000014BDA61704700000010024029B1064A32
:1004100092690243044B9A6104E0034A9269824361
:10042000014B9A617047000000100240704710B500
:1004300000F002F810BD00000CB500200190009003
:100440003348006840F480303149086000BF3048CC
:10045000006800F4003000900198401C0190009862
:1004600018B90198B0F5A06FF1D12948006800F4DF
:10047000003010B10120009001E0002000900098B1
:10048000012843D12348006840F01000214908604A
:100490000846006820F0030008600846006840F045
:1004A000020008601A4840681949486008464068D8
:1004B00048600846406840F48060486008464068EC
:1004C00020F47C1048600846406840F4E81048601A
:1004D0000846006840F08070086000BF0C48006863
:1004E00000F000700028F9D00948406820F00300AF
:1004F000074948600846406840F00200486000BF75
:100500000348406800F00C000828F9D10CBD000039
:1005100000100240002002407047000010B5134850
:10052000006840F001001149086008464068104921
:1005300008400E494860084600680E4908400B49CB
:1005400008600846006820F480200860084640687B
:1005500020F4FE0048604FF41F008860FFF767FF3B
:100560004FF000600449086010BD00000010024018
:100570000000FFF8FFFFF6FE08ED00E010B50121D6
:10058000064800F021F840B105480088401C0449A5
:1005900008800121014800F008F810BD001000405B
:1005A00000000020CA4302827047CA43028270479B
:1005B00021B1028842F00102028004E002884FF675
:1005C000FE731A400280704730B5024600200023B7
:1005D0000024158A05EA0103958905EA010413B18F
:1005E0000CB1012000E0002030BD1AB183890B431B
:1005F000838102E083898B438381704700220288D4
:100600001D4B98420ED01D4B98420BD0B0F1804F3D
:1006100008D01B4B984205D01A4B984202D01A4B77
:10062000984204D14FF68F731A404B881A43174BE8
:10063000984207D0164B984204D04FF6FF431A4019
:10064000CB881A4302808B8883850B8803850A4BED
:1006500098420BD0094B984208D00E4B984205D0D7
:100660000D4B984202D00D4B984201D10B7A038674
:100670000123838270470000002C014000340140B8
:100680000004004000080040000C00400010004042
:100690000014004000400140004401400048014077
:1006A00000BFFEE702E008C8121F08C1002AFAD105
:1006B00070477047002001E001C1121F002AFBD1E2
:1006C00070470000FFF726FE4FF4E060FFF782FE60
:1006D000FFF75CFD1BE00E480088052817D10020BD
:1006E0000B4908800B48007810B101280ED107E0B3
:1006F000FFF72CFE07480078401C0649087005E00B
:10070000FFF71CFE00200349087000BF00BFE2E7AE
:100710000000002002000020380700080000002030
:1007200004000000A40600083C07000804000020A4
:0C07300004040000B406000800000000F3
:0400000508000131BD
:00000001FF
